{
  "contractName": "NFTMarketplace",
  "abi": [
    {
      "inputs": [],
      "stateMutability": "nonpayable",
      "type": "constructor"
    },
    {
      "anonymous": false,
      "inputs": [
        {
          "indexed": true,
          "internalType": "address",
          "name": "owner",
          "type": "address"
        },
        {
          "indexed": true,
          "internalType": "address",
          "name": "approved",
          "type": "address"
        },
        {
          "indexed": true,
          "internalType": "uint256",
          "name": "tokenId",
          "type": "uint256"
        }
      ],
      "name": "Approval",
      "type": "event"
    },
    {
      "anonymous": false,
      "inputs": [
        {
          "indexed": true,
          "internalType": "address",
          "name": "owner",
          "type": "address"
        },
        {
          "indexed": true,
          "internalType": "address",
          "name": "operator",
          "type": "address"
        },
        {
          "indexed": false,
          "internalType": "bool",
          "name": "approved",
          "type": "bool"
        }
      ],
      "name": "ApprovalForAll",
      "type": "event"
    },
    {
      "anonymous": false,
      "inputs": [
        {
          "indexed": true,
          "internalType": "address",
          "name": "from",
          "type": "address"
        },
        {
          "indexed": true,
          "internalType": "address",
          "name": "to",
          "type": "address"
        },
        {
          "indexed": true,
          "internalType": "uint256",
          "name": "tokenId",
          "type": "uint256"
        }
      ],
      "name": "Transfer",
      "type": "event"
    },
    {
      "inputs": [
        {
          "internalType": "address",
          "name": "to",
          "type": "address"
        },
        {
          "internalType": "uint256",
          "name": "tokenId",
          "type": "uint256"
        }
      ],
      "name": "approve",
      "outputs": [],
      "stateMutability": "nonpayable",
      "type": "function"
    },
    {
      "inputs": [
        {
          "internalType": "address",
          "name": "owner",
          "type": "address"
        }
      ],
      "name": "balanceOf",
      "outputs": [
        {
          "internalType": "uint256",
          "name": "",
          "type": "uint256"
        }
      ],
      "stateMutability": "view",
      "type": "function"
    },
    {
      "inputs": [
        {
          "internalType": "uint256",
          "name": "tokenId",
          "type": "uint256"
        }
      ],
      "name": "getApproved",
      "outputs": [
        {
          "internalType": "address",
          "name": "",
          "type": "address"
        }
      ],
      "stateMutability": "view",
      "type": "function"
    },
    {
      "inputs": [
        {
          "internalType": "address",
          "name": "owner",
          "type": "address"
        },
        {
          "internalType": "address",
          "name": "operator",
          "type": "address"
        }
      ],
      "name": "isApprovedForAll",
      "outputs": [
        {
          "internalType": "bool",
          "name": "",
          "type": "bool"
        }
      ],
      "stateMutability": "view",
      "type": "function"
    },
    {
      "inputs": [],
      "name": "name",
      "outputs": [
        {
          "internalType": "string",
          "name": "",
          "type": "string"
        }
      ],
      "stateMutability": "view",
      "type": "function"
    },
    {
      "inputs": [
        {
          "internalType": "uint256",
          "name": "",
          "type": "uint256"
        }
      ],
      "name": "nfts",
      "outputs": [
        {
          "internalType": "uint256",
          "name": "tokenId",
          "type": "uint256"
        },
        {
          "internalType": "string",
          "name": "name",
          "type": "string"
        },
        {
          "internalType": "string",
          "name": "description",
          "type": "string"
        },
        {
          "internalType": "address",
          "name": "owner",
          "type": "address"
        },
        {
          "internalType": "uint256",
          "name": "salePrice",
          "type": "uint256"
        }
      ],
      "stateMutability": "view",
      "type": "function"
    },
    {
      "inputs": [
        {
          "internalType": "uint256",
          "name": "tokenId",
          "type": "uint256"
        }
      ],
      "name": "ownerOf",
      "outputs": [
        {
          "internalType": "address",
          "name": "",
          "type": "address"
        }
      ],
      "stateMutability": "view",
      "type": "function"
    },
    {
      "inputs": [
        {
          "internalType": "address",
          "name": "from",
          "type": "address"
        },
        {
          "internalType": "address",
          "name": "to",
          "type": "address"
        },
        {
          "internalType": "uint256",
          "name": "tokenId",
          "type": "uint256"
        }
      ],
      "name": "safeTransferFrom",
      "outputs": [],
      "stateMutability": "nonpayable",
      "type": "function"
    },
    {
      "inputs": [
        {
          "internalType": "address",
          "name": "from",
          "type": "address"
        },
        {
          "internalType": "address",
          "name": "to",
          "type": "address"
        },
        {
          "internalType": "uint256",
          "name": "tokenId",
          "type": "uint256"
        },
        {
          "internalType": "bytes",
          "name": "data",
          "type": "bytes"
        }
      ],
      "name": "safeTransferFrom",
      "outputs": [],
      "stateMutability": "nonpayable",
      "type": "function"
    },
    {
      "inputs": [
        {
          "internalType": "address",
          "name": "operator",
          "type": "address"
        },
        {
          "internalType": "bool",
          "name": "approved",
          "type": "bool"
        }
      ],
      "name": "setApprovalForAll",
      "outputs": [],
      "stateMutability": "nonpayable",
      "type": "function"
    },
    {
      "inputs": [
        {
          "internalType": "bytes4",
          "name": "interfaceId",
          "type": "bytes4"
        }
      ],
      "name": "supportsInterface",
      "outputs": [
        {
          "internalType": "bool",
          "name": "",
          "type": "bool"
        }
      ],
      "stateMutability": "view",
      "type": "function"
    },
    {
      "inputs": [],
      "name": "symbol",
      "outputs": [
        {
          "internalType": "string",
          "name": "",
          "type": "string"
        }
      ],
      "stateMutability": "view",
      "type": "function"
    },
    {
      "inputs": [
        {
          "internalType": "uint256",
          "name": "tokenId",
          "type": "uint256"
        }
      ],
      "name": "tokenURI",
      "outputs": [
        {
          "internalType": "string",
          "name": "",
          "type": "string"
        }
      ],
      "stateMutability": "view",
      "type": "function"
    },
    {
      "inputs": [
        {
          "internalType": "address",
          "name": "from",
          "type": "address"
        },
        {
          "internalType": "address",
          "name": "to",
          "type": "address"
        },
        {
          "internalType": "uint256",
          "name": "tokenId",
          "type": "uint256"
        }
      ],
      "name": "transferFrom",
      "outputs": [],
      "stateMutability": "nonpayable",
      "type": "function"
    },
    {
      "inputs": [
        {
          "internalType": "uint256",
          "name": "tokenId",
          "type": "uint256"
        },
        {
          "internalType": "string",
          "name": "name",
          "type": "string"
        },
        {
          "internalType": "string",
          "name": "description",
          "type": "string"
        },
        {
          "internalType": "string",
          "name": "tokenURI",
          "type": "string"
        }
      ],
      "name": "createNFT",
      "outputs": [],
      "stateMutability": "nonpayable",
      "type": "function"
    },
    {
      "inputs": [
        {
          "internalType": "uint256",
          "name": "tokenId",
          "type": "uint256"
        },
        {
          "internalType": "address",
          "name": "to",
          "type": "address"
        }
      ],
      "name": "transferNFT",
      "outputs": [],
      "stateMutability": "nonpayable",
      "type": "function"
    },
    {
      "inputs": [
        {
          "internalType": "uint256",
          "name": "tokenId",
          "type": "uint256"
        },
        {
          "internalType": "uint256",
          "name": "salePrice",
          "type": "uint256"
        }
      ],
      "name": "listNFTForSale",
      "outputs": [],
      "stateMutability": "nonpayable",
      "type": "function"
    },
    {
      "inputs": [
        {
          "internalType": "uint256",
          "name": "tokenId",
          "type": "uint256"
        }
      ],
      "name": "removeNFTFromSale",
      "outputs": [],
      "stateMutability": "nonpayable",
      "type": "function"
    },
    {
      "inputs": [
        {
          "internalType": "uint256",
          "name": "tokenId",
          "type": "uint256"
        }
      ],
      "name": "purchaseNFT",
      "outputs": [],
      "stateMutability": "payable",
      "type": "function"
    },
    {
      "inputs": [
        {
          "internalType": "uint256",
          "name": "tokenId",
          "type": "uint256"
        }
      ],
      "name": "getNFT",
      "outputs": [
        {
          "components": [
            {
              "internalType": "uint256",
              "name": "tokenId",
              "type": "uint256"
            },
            {
              "internalType": "string",
              "name": "name",
              "type": "string"
            },
            {
              "internalType": "string",
              "name": "description",
              "type": "string"
            },
            {
              "internalType": "address",
              "name": "owner",
              "type": "address"
            },
            {
              "internalType": "uint256",
              "name": "salePrice",
              "type": "uint256"
            }
          ],
          "internalType": "struct NFTMarketplace.NFT",
          "name": "",
          "type": "tuple"
        }
      ],
      "stateMutability": "view",
      "type": "function"
    }
  ],
  "bytecode": "0x60806040523480156200001157600080fd5b506040518060400160405280600e81526020017f4e46544d61726b6574706c6163650000000000000000000000000000000000008152506040518060400160405280600481526020017f4e46544d00000000000000000000000000000000000000000000000000000000815250816000908051906020019062000096929190620000b8565b508060019080519060200190620000af929190620000b8565b505050620001cc565b828054620000c69062000197565b90600052602060002090601f016020900481019282620000ea576000855562000136565b82601f106200010557805160ff191683800117855562000136565b8280016001018555821562000136579182015b828111156200013557825182559160200191906001019062000118565b5b50905062000145919062000149565b5090565b5b80821115620001645760008160009055506001016200014a565b5090565b7f4e487b7100000000000000000000000000000000000000000000000000000000600052602260045260246000fd5b60006002820490506001821680620001b057607f821691505b602082108103620001c657620001c562000168565b5b50919050565b613aac80620001dc6000396000f3fe60806040526004361061011f5760003560e01c80636352211e116100a0578063a22cb46511610064578063a22cb465146103fe578063b2733b3914610427578063b88d4fde14610450578063c87b56dd14610479578063e985e9c5146104b65761011f565b80636352211e1461030757806370a08231146103445780639036c0501461038157806395d89b41146103aa578063a02e5107146103d55761011f565b8063150bde03116100e7578063150bde031461021b57806323b872dd14610237578063265aa6211461026057806342842e0e146102a1578063576f7ea7146102ca5761011f565b806301ffc9a71461012457806306fdde0314610161578063081812fc1461018c578063095ea7b3146101c95780630fd48884146101f2575b600080fd5b34801561013057600080fd5b5061014b600480360381019061014691906126f5565b6104f3565b604051610158919061273d565b60405180910390f35b34801561016d57600080fd5b506101766105d5565b60405161018391906127f1565b60405180910390f35b34801561019857600080fd5b506101b360048036038101906101ae9190612849565b610667565b6040516101c091906128b7565b60405180910390f35b3480156101d557600080fd5b506101f060048036038101906101eb91906128fe565b6106ad565b005b3480156101fe57600080fd5b5061021960048036038101906102149190612a73565b6107c4565b005b61023560048036038101906102309190612849565b610916565b005b34801561024357600080fd5b5061025e60048036038101906102599190612b2e565b610c29565b005b34801561026c57600080fd5b5061028760048036038101906102829190612849565b610c89565b604051610298959493929190612b90565b60405180910390f35b3480156102ad57600080fd5b506102c860048036038101906102c39190612b2e565b610def565b005b3480156102d657600080fd5b506102f160048036038101906102ec9190612849565b610e0f565b6040516102fe9190612cd6565b60405180910390f35b34801561031357600080fd5b5061032e60048036038101906103299190612849565b610fca565b60405161033b91906128b7565b60405180910390f35b34801561035057600080fd5b5061036b60048036038101906103669190612cf8565b611050565b6040516103789190612d25565b60405180910390f35b34801561038d57600080fd5b506103a860048036038101906103a39190612d40565b611107565b005b3480156103b657600080fd5b506103bf61127e565b6040516103cc91906127f1565b60405180910390f35b3480156103e157600080fd5b506103fc60048036038101906103f79190612849565b611310565b005b34801561040a57600080fd5b5061042560048036038101906104209190612dac565b6113d3565b005b34801561043357600080fd5b5061044e60048036038101906104499190612dec565b6113e9565b005b34801561045c57600080fd5b5061047760048036038101906104729190612ecd565b6114ef565b005b34801561048557600080fd5b506104a0600480360381019061049b9190612849565b611551565b6040516104ad91906127f1565b60405180910390f35b3480156104c257600080fd5b506104dd60048036038101906104d89190612f50565b611663565b6040516104ea919061273d565b60405180910390f35b60007f80ac58cd000000000000000000000000000000000000000000000000000000007bffffffffffffffffffffffffffffffffffffffffffffffffffffffff1916827bffffffffffffffffffffffffffffffffffffffffffffffffffffffff191614806105be57507f5b5e139f000000000000000000000000000000000000000000000000000000007bffffffffffffffffffffffffffffffffffffffffffffffffffffffff1916827bffffffffffffffffffffffffffffffffffffffffffffffffffffffff1916145b806105ce57506105cd826116f7565b5b9050919050565b6060600080546105e490612fbf565b80601f016020809104026020016040519081016040528092919081815260200182805461061090612fbf565b801561065d5780601f106106325761010080835404028352916020019161065d565b820191906000526020600020905b81548152906001019060200180831161064057829003601f168201915b5050505050905090565b600061067282611761565b6004600083815260200190815260200160002060009054906101000a900473ffffffffffffffffffffffffffffffffffffffff169050919050565b60006106b882610fca565b90508073ffffffffffffffffffffffffffffffffffffffff168373ffffffffffffffffffffffffffffffffffffffff1603610728576040517f08c379a000000000000000000000000000000000000000000000000000000000815260040161071f90613062565b60405180910390fd5b8073ffffffffffffffffffffffffffffffffffffffff166107476117ac565b73ffffffffffffffffffffffffffffffffffffffff1614806107765750610775816107706117ac565b611663565b5b6107b5576040517f08c379a00000000000000000000000000000000000000000000000000000000081526004016107ac906130f4565b60405180910390fd5b6107bf83836117b4565b505050565b6107cd8461186d565b1561080d576040517f08c379a000000000000000000000000000000000000000000000000000000000815260040161080490613186565b60405180910390fd5b61081733856118ae565b61082184826118cc565b60006040518060a001604052808681526020018581526020018481526020013373ffffffffffffffffffffffffffffffffffffffff16815260200160008152509050806008600087815260200190815260200160002060008201518160000155602082015181600101908051906020019061089d9291906125a1565b5060408201518160020190805190602001906108ba9291906125a1565b5060608201518160030160006101000a81548173ffffffffffffffffffffffffffffffffffffffff021916908373ffffffffffffffffffffffffffffffffffffffff160217905550608082015181600401559050505050505050565b6000600860008381526020019081526020016000206040518060a00160405290816000820154815260200160018201805461095090612fbf565b80601f016020809104026020016040519081016040528092919081815260200182805461097c90612fbf565b80156109c95780601f1061099e576101008083540402835291602001916109c9565b820191906000526020600020905b8154815290600101906020018083116109ac57829003601f168201915b505050505081526020016002820180546109e290612fbf565b80601f0160208091040260200160405190810160405280929190818152602001828054610a0e90612fbf565b8015610a5b5780601f10610a3057610100808354040283529160200191610a5b565b820191906000526020600020905b815481529060010190602001808311610a3e57829003601f168201915b505050505081526020016003820160009054906101000a900473ffffffffffffffffffffffffffffffffffffffff1673ffffffffffffffffffffffffffffffffffffffff1673ffffffffffffffffffffffffffffffffffffffff16815260200160048201548152505090506000816080015111610b0d576040517f08c379a0000000000000000000000000000000000000000000000000000000008152600401610b04906131f2565b60405180910390fd5b8060800151341015610b54576040517f08c379a0000000000000000000000000000000000000000000000000000000008152600401610b4b9061325e565b60405180910390fd5b6000816060015190508073ffffffffffffffffffffffffffffffffffffffff166108fc83608001519081150290604051600060405180830381858888f19350505050158015610ba7573d6000803e3d6000fd5b50610bb3813385611940565b336008600085815260200190815260200160002060030160006101000a81548173ffffffffffffffffffffffffffffffffffffffff021916908373ffffffffffffffffffffffffffffffffffffffff16021790555060006008600085815260200190815260200160002060040181905550505050565b610c3a610c346117ac565b82611c39565b610c79576040517f08c379a0000000000000000000000000000000000000000000000000000000008152600401610c70906132f0565b60405180910390fd5b610c84838383611940565b505050565b6008602052806000526040600020600091509050806000015490806001018054610cb290612fbf565b80601f0160208091040260200160405190810160405280929190818152602001828054610cde90612fbf565b8015610d2b5780601f10610d0057610100808354040283529160200191610d2b565b820191906000526020600020905b815481529060010190602001808311610d0e57829003601f168201915b505050505090806002018054610d4090612fbf565b80601f0160208091040260200160405190810160405280929190818152602001828054610d6c90612fbf565b8015610db95780601f10610d8e57610100808354040283529160200191610db9565b820191906000526020600020905b815481529060010190602001808311610d9c57829003601f168201915b5050505050908060030160009054906101000a900473ffffffffffffffffffffffffffffffffffffffff16908060040154905085565b610e0a838383604051806020016040528060008152506114ef565b505050565b610e17612627565b600860008381526020019081526020016000206040518060a001604052908160008201548152602001600182018054610e4f90612fbf565b80601f0160208091040260200160405190810160405280929190818152602001828054610e7b90612fbf565b8015610ec85780601f10610e9d57610100808354040283529160200191610ec8565b820191906000526020600020905b815481529060010190602001808311610eab57829003601f168201915b50505050508152602001600282018054610ee190612fbf565b80601f0160208091040260200160405190810160405280929190818152602001828054610f0d90612fbf565b8015610f5a5780601f10610f2f57610100808354040283529160200191610f5a565b820191906000526020600020905b815481529060010190602001808311610f3d57829003601f168201915b505050505081526020016003820160009054906101000a900473ffffffffffffffffffffffffffffffffffffffff1673ffffffffffffffffffffffffffffffffffffffff1673ffffffffffffffffffffffffffffffffffffffff1681526020016004820154815250509050919050565b600080610fd683611cce565b9050600073ffffffffffffffffffffffffffffffffffffffff168173ffffffffffffffffffffffffffffffffffffffff1603611047576040517f08c379a000000000000000000000000000000000000000000000000000000000815260040161103e9061335c565b60405180910390fd5b80915050919050565b60008073ffffffffffffffffffffffffffffffffffffffff168273ffffffffffffffffffffffffffffffffffffffff16036110c0576040517f08c379a00000000000000000000000000000000000000000000000000000000081526004016110b7906133ee565b60405180910390fd5b600360008373ffffffffffffffffffffffffffffffffffffffff1673ffffffffffffffffffffffffffffffffffffffff168152602001908152602001600020549050919050565b3373ffffffffffffffffffffffffffffffffffffffff166008600084815260200190815260200160002060030160009054906101000a900473ffffffffffffffffffffffffffffffffffffffff1673ffffffffffffffffffffffffffffffffffffffff16146111ab576040517f08c379a00000000000000000000000000000000000000000000000000000000081526004016111a29061345a565b60405180910390fd5b600073ffffffffffffffffffffffffffffffffffffffff168173ffffffffffffffffffffffffffffffffffffffff160361121a576040517f08c379a0000000000000000000000000000000000000000000000000000000008152600401611211906134c6565b60405180910390fd5b611225338284611940565b806008600084815260200190815260200160002060030160006101000a81548173ffffffffffffffffffffffffffffffffffffffff021916908373ffffffffffffffffffffffffffffffffffffffff1602179055505050565b60606001805461128d90612fbf565b80601f01602080910402602001604051908101604052809291908181526020018280546112b990612fbf565b80156113065780601f106112db57610100808354040283529160200191611306565b820191906000526020600020905b8154815290600101906020018083116112e957829003601f168201915b5050505050905090565b3373ffffffffffffffffffffffffffffffffffffffff166008600083815260200190815260200160002060030160009054906101000a900473ffffffffffffffffffffffffffffffffffffffff1673ffffffffffffffffffffffffffffffffffffffff16146113b4576040517f08c379a00000000000000000000000000000000000000000000000000000000081526004016113ab9061345a565b60405180910390fd5b6000600860008381526020019081526020016000206004018190555050565b6113e56113de6117ac565b8383611d0b565b5050565b3373ffffffffffffffffffffffffffffffffffffffff166008600084815260200190815260200160002060030160009054906101000a900473ffffffffffffffffffffffffffffffffffffffff1673ffffffffffffffffffffffffffffffffffffffff161461148d576040517f08c379a00000000000000000000000000000000000000000000000000000000081526004016114849061345a565b60405180910390fd5b600081116114d0576040517f08c379a00000000000000000000000000000000000000000000000000000000081526004016114c790613558565b60405180910390fd5b8060086000848152602001908152602001600020600401819055505050565b6115006114fa6117ac565b83611c39565b61153f576040517f08c379a0000000000000000000000000000000000000000000000000000000008152600401611536906132f0565b60405180910390fd5b61154b84848484611e77565b50505050565b606061155c82611761565b600060066000848152602001908152602001600020805461157c90612fbf565b80601f01602080910402602001604051908101604052809291908181526020018280546115a890612fbf565b80156115f55780601f106115ca576101008083540402835291602001916115f5565b820191906000526020600020905b8154815290600101906020018083116115d857829003601f168201915b505050505090506000611606611ed3565b9050600081510361161b57819250505061165e565b6000825111156116505780826040516020016116389291906135b4565b6040516020818303038152906040529250505061165e565b61165984611eea565b925050505b919050565b6000600560008473ffffffffffffffffffffffffffffffffffffffff1673ffffffffffffffffffffffffffffffffffffffff16815260200190815260200160002060008373ffffffffffffffffffffffffffffffffffffffff1673ffffffffffffffffffffffffffffffffffffffff16815260200190815260200160002060009054906101000a900460ff16905092915050565b60007f01ffc9a7000000000000000000000000000000000000000000000000000000007bffffffffffffffffffffffffffffffffffffffffffffffffffffffff1916827bffffffffffffffffffffffffffffffffffffffffffffffffffffffff1916149050919050565b61176a8161186d565b6117a9576040517f08c379a00000000000000000000000000000000000000000000000000000000081526004016117a09061335c565b60405180910390fd5b50565b600033905090565b816004600083815260200190815260200160002060006101000a81548173ffffffffffffffffffffffffffffffffffffffff021916908373ffffffffffffffffffffffffffffffffffffffff160217905550808273ffffffffffffffffffffffffffffffffffffffff1661182783610fca565b73ffffffffffffffffffffffffffffffffffffffff167f8c5be1e5ebec7d5bd14f71427d1e84f3dd0314c0f7b2291e5b200ac8c7c3b92560405160405180910390a45050565b60008073ffffffffffffffffffffffffffffffffffffffff1661188f83611cce565b73ffffffffffffffffffffffffffffffffffffffff1614159050919050565b6118c8828260405180602001604052806000815250611f52565b5050565b6118d58261186d565b611914576040517f08c379a000000000000000000000000000000000000000000000000000000000815260040161190b9061364a565b60405180910390fd5b8060066000848152602001908152602001600020908051906020019061193b9291906125a1565b505050565b8273ffffffffffffffffffffffffffffffffffffffff1661196082610fca565b73ffffffffffffffffffffffffffffffffffffffff16146119b6576040517f08c379a00000000000000000000000000000000000000000000000000000000081526004016119ad906136dc565b60405180910390fd5b600073ffffffffffffffffffffffffffffffffffffffff168273ffffffffffffffffffffffffffffffffffffffff1603611a25576040517f08c379a0000000000000000000000000000000000000000000000000000000008152600401611a1c9061376e565b60405180910390fd5b611a328383836001611fad565b8273ffffffffffffffffffffffffffffffffffffffff16611a5282610fca565b73ffffffffffffffffffffffffffffffffffffffff1614611aa8576040517f08c379a0000000000000000000000000000000000000000000000000000000008152600401611a9f906136dc565b60405180910390fd5b6004600082815260200190815260200160002060006101000a81549073ffffffffffffffffffffffffffffffffffffffff02191690556001600360008573ffffffffffffffffffffffffffffffffffffffff1673ffffffffffffffffffffffffffffffffffffffff168152602001908152602001600020600082825403925050819055506001600360008473ffffffffffffffffffffffffffffffffffffffff1673ffffffffffffffffffffffffffffffffffffffff16815260200190815260200160002060008282540192505081905550816002600083815260200190815260200160002060006101000a81548173ffffffffffffffffffffffffffffffffffffffff021916908373ffffffffffffffffffffffffffffffffffffffff160217905550808273ffffffffffffffffffffffffffffffffffffffff168473ffffffffffffffffffffffffffffffffffffffff167fddf252ad1be2c89b69c2b068fc378daa952ba7f163c4a11628f55a4df523b3ef60405160405180910390a4611c348383836001611fb3565b505050565b600080611c4583610fca565b90508073ffffffffffffffffffffffffffffffffffffffff168473ffffffffffffffffffffffffffffffffffffffff161480611c875750611c868185611663565b5b80611cc557508373ffffffffffffffffffffffffffffffffffffffff16611cad84610667565b73ffffffffffffffffffffffffffffffffffffffff16145b91505092915050565b60006002600083815260200190815260200160002060009054906101000a900473ffffffffffffffffffffffffffffffffffffffff169050919050565b8173ffffffffffffffffffffffffffffffffffffffff168373ffffffffffffffffffffffffffffffffffffffff1603611d79576040517f08c379a0000000000000000000000000000000000000000000000000000000008152600401611d70906137da565b60405180910390fd5b80600560008573ffffffffffffffffffffffffffffffffffffffff1673ffffffffffffffffffffffffffffffffffffffff16815260200190815260200160002060008473ffffffffffffffffffffffffffffffffffffffff1673ffffffffffffffffffffffffffffffffffffffff16815260200190815260200160002060006101000a81548160ff0219169083151502179055508173ffffffffffffffffffffffffffffffffffffffff168373ffffffffffffffffffffffffffffffffffffffff167f17307eab39ab6107e8899845ad3d59bd9653f200f220920489ca2b5937696c3183604051611e6a919061273d565b60405180910390a3505050565b611e82848484611940565b611e8e84848484611fb9565b611ecd576040517f08c379a0000000000000000000000000000000000000000000000000000000008152600401611ec49061386c565b60405180910390fd5b50505050565b606060405180602001604052806000815250905090565b6060611ef582611761565b6000611eff611ed3565b90506000815111611f1f5760405180602001604052806000815250611f4a565b80611f2984612140565b604051602001611f3a9291906135b4565b6040516020818303038152906040525b915050919050565b611f5c838361220e565b611f696000848484611fb9565b611fa8576040517f08c379a0000000000000000000000000000000000000000000000000000000008152600401611f9f9061386c565b60405180910390fd5b505050565b50505050565b50505050565b6000611fda8473ffffffffffffffffffffffffffffffffffffffff1661242b565b15612133578373ffffffffffffffffffffffffffffffffffffffff1663150b7a026120036117ac565b8786866040518563ffffffff1660e01b815260040161202594939291906138e1565b6020604051808303816000875af192505050801561206157506040513d601f19601f8201168201806040525081019061205e9190613942565b60015b6120e3573d8060008114612091576040519150601f19603f3d011682016040523d82523d6000602084013e612096565b606091505b5060008151036120db576040517f08c379a00000000000000000000000000000000000000000000000000000000081526004016120d29061386c565b60405180910390fd5b805181602001fd5b63150b7a0260e01b7bffffffffffffffffffffffffffffffffffffffffffffffffffffffff1916817bffffffffffffffffffffffffffffffffffffffffffffffffffffffff191614915050612138565b600190505b949350505050565b60606000600161214f8461244e565b01905060008167ffffffffffffffff81111561216e5761216d612948565b5b6040519080825280601f01601f1916602001820160405280156121a05781602001600182028036833780820191505090505b509050600082602001820190505b600115612203578080600190039150507f3031323334353637383961626364656600000000000000000000000000000000600a86061a8153600a85816121f7576121f661396f565b5b049450600085036121ae575b819350505050919050565b600073ffffffffffffffffffffffffffffffffffffffff168273ffffffffffffffffffffffffffffffffffffffff160361227d576040517f08c379a0000000000000000000000000000000000000000000000000000000008152600401612274906139ea565b60405180910390fd5b6122868161186d565b156122c6576040517f08c379a00000000000000000000000000000000000000000000000000000000081526004016122bd90613a56565b60405180910390fd5b6122d4600083836001611fad565b6122dd8161186d565b1561231d576040517f08c379a000000000000000000000000000000000000000000000000000000000815260040161231490613a56565b60405180910390fd5b6001600360008473ffffffffffffffffffffffffffffffffffffffff1673ffffffffffffffffffffffffffffffffffffffff16815260200190815260200160002060008282540192505081905550816002600083815260200190815260200160002060006101000a81548173ffffffffffffffffffffffffffffffffffffffff021916908373ffffffffffffffffffffffffffffffffffffffff160217905550808273ffffffffffffffffffffffffffffffffffffffff16600073ffffffffffffffffffffffffffffffffffffffff167fddf252ad1be2c89b69c2b068fc378daa952ba7f163c4a11628f55a4df523b3ef60405160405180910390a4612427600083836001611fb3565b5050565b6000808273ffffffffffffffffffffffffffffffffffffffff163b119050919050565b600080600090507a184f03e93ff9f4daa797ed6e38ed64bf6a1f01000000000000000083106124ac577a184f03e93ff9f4daa797ed6e38ed64bf6a1f01000000000000000083816124a2576124a161396f565b5b0492506040810190505b6d04ee2d6d415b85acef810000000083106124e9576d04ee2d6d415b85acef810000000083816124df576124de61396f565b5b0492506020810190505b662386f26fc10000831061251857662386f26fc10000838161250e5761250d61396f565b5b0492506010810190505b6305f5e1008310612541576305f5e10083816125375761253661396f565b5b0492506008810190505b612710831061256657612710838161255c5761255b61396f565b5b0492506004810190505b60648310612589576064838161257f5761257e61396f565b5b0492506002810190505b600a8310612598576001810190505b80915050919050565b8280546125ad90612fbf565b90600052602060002090601f0160209004810192826125cf5760008555612616565b82601f106125e857805160ff1916838001178555612616565b82800160010185558215612616579182015b828111156126155782518255916020019190600101906125fa565b5b509050612623919061266c565b5090565b6040518060a00160405280600081526020016060815260200160608152602001600073ffffffffffffffffffffffffffffffffffffffff168152602001600081525090565b5b8082111561268557600081600090555060010161266d565b5090565b6000604051905090565b600080fd5b600080fd5b60007fffffffff0000000000000000000000000000000000000000000000000000000082169050919050565b6126d28161269d565b81146126dd57600080fd5b50565b6000813590506126ef816126c9565b92915050565b60006020828403121561270b5761270a612693565b5b6000612719848285016126e0565b91505092915050565b60008115159050919050565b61273781612722565b82525050565b6000602082019050612752600083018461272e565b92915050565b600081519050919050565b600082825260208201905092915050565b60005b83811015612792578082015181840152602081019050612777565b838111156127a1576000848401525b50505050565b6000601f19601f8301169050919050565b60006127c382612758565b6127cd8185612763565b93506127dd818560208601612774565b6127e6816127a7565b840191505092915050565b6000602082019050818103600083015261280b81846127b8565b905092915050565b6000819050919050565b61282681612813565b811461283157600080fd5b50565b6000813590506128438161281d565b92915050565b60006020828403121561285f5761285e612693565b5b600061286d84828501612834565b91505092915050565b600073ffffffffffffffffffffffffffffffffffffffff82169050919050565b60006128a182612876565b9050919050565b6128b181612896565b82525050565b60006020820190506128cc60008301846128a8565b92915050565b6128db81612896565b81146128e657600080fd5b50565b6000813590506128f8816128d2565b92915050565b6000806040838503121561291557612914612693565b5b6000612923858286016128e9565b925050602061293485828601612834565b9150509250929050565b600080fd5b600080fd5b7f4e487b7100000000000000000000000000000000000000000000000000000000600052604160045260246000fd5b612980826127a7565b810181811067ffffffffffffffff8211171561299f5761299e612948565b5b80604052505050565b60006129b2612689565b90506129be8282612977565b919050565b600067ffffffffffffffff8211156129de576129dd612948565b5b6129e7826127a7565b9050602081019050919050565b82818337600083830152505050565b6000612a16612a11846129c3565b6129a8565b905082815260208101848484011115612a3257612a31612943565b5b612a3d8482856129f4565b509392505050565b600082601f830112612a5a57612a5961293e565b5b8135612a6a848260208601612a03565b91505092915050565b60008060008060808587031215612a8d57612a8c612693565b5b6000612a9b87828801612834565b945050602085013567ffffffffffffffff811115612abc57612abb612698565b5b612ac887828801612a45565b935050604085013567ffffffffffffffff811115612ae957612ae8612698565b5b612af587828801612a45565b925050606085013567ffffffffffffffff811115612b1657612b15612698565b5b612b2287828801612a45565b91505092959194509250565b600080600060608486031215612b4757612b46612693565b5b6000612b55868287016128e9565b9350506020612b66868287016128e9565b9250506040612b7786828701612834565b9150509250925092565b612b8a81612813565b82525050565b600060a082019050612ba56000830188612b81565b8181036020830152612bb781876127b8565b90508181036040830152612bcb81866127b8565b9050612bda60608301856128a8565b612be76080830184612b81565b9695505050505050565b612bfa81612813565b82525050565b600082825260208201905092915050565b6000612c1c82612758565b612c268185612c00565b9350612c36818560208601612774565b612c3f816127a7565b840191505092915050565b612c5381612896565b82525050565b600060a083016000830151612c716000860182612bf1565b5060208301518482036020860152612c898282612c11565b91505060408301518482036040860152612ca38282612c11565b9150506060830151612cb86060860182612c4a565b506080830151612ccb6080860182612bf1565b508091505092915050565b60006020820190508181036000830152612cf08184612c59565b905092915050565b600060208284031215612d0e57612d0d612693565b5b6000612d1c848285016128e9565b91505092915050565b6000602082019050612d3a6000830184612b81565b92915050565b60008060408385031215612d5757612d56612693565b5b6000612d6585828601612834565b9250506020612d76858286016128e9565b9150509250929050565b612d8981612722565b8114612d9457600080fd5b50565b600081359050612da681612d80565b92915050565b60008060408385031215612dc357612dc2612693565b5b6000612dd1858286016128e9565b9250506020612de285828601612d97565b9150509250929050565b60008060408385031215612e0357612e02612693565b5b6000612e1185828601612834565b9250506020612e2285828601612834565b9150509250929050565b600067ffffffffffffffff821115612e4757612e46612948565b5b612e50826127a7565b9050602081019050919050565b6000612e70612e6b84612e2c565b6129a8565b905082815260208101848484011115612e8c57612e8b612943565b5b612e978482856129f4565b509392505050565b600082601f830112612eb457612eb361293e565b5b8135612ec4848260208601612e5d565b91505092915050565b60008060008060808587031215612ee757612ee6612693565b5b6000612ef5878288016128e9565b9450506020612f06878288016128e9565b9350506040612f1787828801612834565b925050606085013567ffffffffffffffff811115612f3857612f37612698565b5b612f4487828801612e9f565b91505092959194509250565b60008060408385031215612f6757612f66612693565b5b6000612f75858286016128e9565b9250506020612f86858286016128e9565b9150509250929050565b7f4e487b7100000000000000000000000000000000000000000000000000000000600052602260045260246000fd5b60006002820490506001821680612fd757607f821691505b602082108103612fea57612fe9612f90565b5b50919050565b7f4552433732313a20617070726f76616c20746f2063757272656e74206f776e6560008201527f7200000000000000000000000000000000000000000000000000000000000000602082015250565b600061304c602183612763565b915061305782612ff0565b604082019050919050565b6000602082019050818103600083015261307b8161303f565b9050919050565b7f4552433732313a20617070726f76652063616c6c6572206973206e6f7420746f60008201527f6b656e206f776e6572206f7220617070726f76656420666f7220616c6c000000602082015250565b60006130de603d83612763565b91506130e982613082565b604082019050919050565b6000602082019050818103600083015261310d816130d1565b9050919050565b7f4e46542077697468207468697320746f6b656e20494420616c7265616479206560008201527f7869737473000000000000000000000000000000000000000000000000000000602082015250565b6000613170602583612763565b915061317b82613114565b604082019050919050565b6000602082019050818103600083015261319f81613163565b9050919050565b7f4e4654206973206e6f7420666f722073616c6500000000000000000000000000600082015250565b60006131dc601383612763565b91506131e7826131a6565b602082019050919050565b6000602082019050818103600083015261320b816131cf565b9050919050565b7f496e73756666696369656e742066756e64730000000000000000000000000000600082015250565b6000613248601283612763565b915061325382613212565b602082019050919050565b600060208201905081810360008301526132778161323b565b9050919050565b7f4552433732313a2063616c6c6572206973206e6f7420746f6b656e206f776e6560008201527f72206f7220617070726f76656400000000000000000000000000000000000000602082015250565b60006132da602d83612763565b91506132e58261327e565b604082019050919050565b60006020820190508181036000830152613309816132cd565b9050919050565b7f4552433732313a20696e76616c696420746f6b656e2049440000000000000000600082015250565b6000613346601883612763565b915061335182613310565b602082019050919050565b6000602082019050818103600083015261337581613339565b9050919050565b7f4552433732313a2061646472657373207a65726f206973206e6f74206120766160008201527f6c6964206f776e65720000000000000000000000000000000000000000000000602082015250565b60006133d8602983612763565b91506133e38261337c565b604082019050919050565b60006020820190508181036000830152613407816133cb565b9050919050565b7f43616c6c6572206973206e6f7420746865206f776e6572000000000000000000600082015250565b6000613444601783612763565b915061344f8261340e565b602082019050919050565b6000602082019050818103600083015261347381613437565b9050919050565b7f496e76616c696420726563697069656e74206164647265737300000000000000600082015250565b60006134b0601983612763565b91506134bb8261347a565b602082019050919050565b600060208201905081810360008301526134df816134a3565b9050919050565b7f53616c65207072696365206d7573742062652067726561746572207468616e2060008201527f3000000000000000000000000000000000000000000000000000000000000000602082015250565b6000613542602183612763565b915061354d826134e6565b604082019050919050565b6000602082019050818103600083015261357181613535565b9050919050565b600081905092915050565b600061358e82612758565b6135988185613578565b93506135a8818560208601612774565b80840191505092915050565b60006135c08285613583565b91506135cc8284613583565b91508190509392505050565b7f45524337323155524953746f726167653a2055524920736574206f66206e6f6e60008201527f6578697374656e7420746f6b656e000000000000000000000000000000000000602082015250565b6000613634602e83612763565b915061363f826135d8565b604082019050919050565b6000602082019050818103600083015261366381613627565b9050919050565b7f4552433732313a207472616e736665722066726f6d20696e636f72726563742060008201527f6f776e6572000000000000000000000000000000000000000000000000000000602082015250565b60006136c6602583612763565b91506136d18261366a565b604082019050919050565b600060208201905081810360008301526136f5816136b9565b9050919050565b7f4552433732313a207472616e7366657220746f20746865207a65726f2061646460008201527f7265737300000000000000000000000000000000000000000000000000000000602082015250565b6000613758602483612763565b9150613763826136fc565b604082019050919050565b600060208201905081810360008301526137878161374b565b9050919050565b7f4552433732313a20617070726f766520746f2063616c6c657200000000000000600082015250565b60006137c4601983612763565b91506137cf8261378e565b602082019050919050565b600060208201905081810360008301526137f3816137b7565b9050919050565b7f4552433732313a207472616e7366657220746f206e6f6e20455243373231526560008201527f63656976657220696d706c656d656e7465720000000000000000000000000000602082015250565b6000613856603283612763565b9150613861826137fa565b604082019050919050565b6000602082019050818103600083015261388581613849565b9050919050565b600081519050919050565b600082825260208201905092915050565b60006138b38261388c565b6138bd8185613897565b93506138cd818560208601612774565b6138d6816127a7565b840191505092915050565b60006080820190506138f660008301876128a8565b61390360208301866128a8565b6139106040830185612b81565b818103606083015261392281846138a8565b905095945050505050565b60008151905061393c816126c9565b92915050565b60006020828403121561395857613957612693565b5b60006139668482850161392d565b91505092915050565b7f4e487b7100000000000000000000000000000000000000000000000000000000600052601260045260246000fd5b7f4552433732313a206d696e7420746f20746865207a65726f2061646472657373600082015250565b60006139d4602083612763565b91506139df8261399e565b602082019050919050565b60006020820190508181036000830152613a03816139c7565b9050919050565b7f4552433732313a20746f6b656e20616c7265616479206d696e74656400000000600082015250565b6000613a40601c83612763565b9150613a4b82613a0a565b602082019050919050565b60006020820190508181036000830152613a6f81613a33565b905091905056fea2646970667358221220f6c02665ff35e363bcf9f74449fbba168a5f47138b570e5d581f57a1d218693564736f6c634300080d0033",
  "immutableReferences": {},
  "source": "// SPDX-License-Identifier: MIT\npragma solidity ^0.8.0;\n\nimport \"@openzeppelin/contracts/token/ERC721/ERC721.sol\";\nimport \"@openzeppelin/contracts/token/ERC721/extensions/ERC721URIStorage.sol\";\nimport \"@openzeppelin/contracts/utils/Counters.sol\";\n\n\ncontract NFTMarketplace is ERC721URIStorage {\n    using Counters for Counters.Counter;\n    Counters.Counter private _tokenIds;\n\n    struct NFT {\n        uint256 tokenId;\n        string name;\n        string description;\n        address owner;\n        uint256 salePrice;\n    }\n\n    mapping(uint256 => NFT) public nfts;\n\n    constructor() ERC721(\"NFTMarketplace\", \"NFTM\") {}\n\n    function createNFT(uint256 tokenId, string memory name, string memory description, string memory tokenURI) public {\n        require(!_exists(tokenId), \"NFT with this token ID already exists\");\n        _safeMint(msg.sender, tokenId);\n        _setTokenURI(tokenId, tokenURI);\n\n        NFT memory nft = NFT(tokenId, name, description, msg.sender, 0);\n        nfts[tokenId] = nft;\n    }\n\n    function transferNFT(uint256 tokenId, address to) public {\n        require(nfts[tokenId].owner == msg.sender, \"Caller is not the owner\");\n        require(to != address(0), \"Invalid recipient address\");\n\n        _transfer(msg.sender, to, tokenId);\n        nfts[tokenId].owner = to;\n    }\n\n    function listNFTForSale(uint256 tokenId, uint256 salePrice) public {\n        require(nfts[tokenId].owner == msg.sender, \"Caller is not the owner\");\n        require(salePrice > 0, \"Sale price must be greater than 0\");\n\n        nfts[tokenId].salePrice = salePrice;\n    }\n\n    function removeNFTFromSale(uint256 tokenId) public {\n        require(nfts[tokenId].owner == msg.sender, \"Caller is not the owner\");\n\n        nfts[tokenId].salePrice = 0;\n    }\n\n    function purchaseNFT(uint256 tokenId) public payable {\n        NFT memory nft = nfts[tokenId];\n        require(nft.salePrice > 0, \"NFT is not for sale\");\n        require(msg.value >= nft.salePrice, \"Insufficient funds\");\n\n        address previousOwner = nft.owner;\n        payable(previousOwner).transfer(nft.salePrice);\n\n        _transfer(previousOwner, msg.sender, tokenId);\n        nfts[tokenId].owner = msg.sender;\n        nfts[tokenId].salePrice = 0;\n    }\n\n    function getNFT(uint256 tokenId) public view returns (NFT memory) {\n        return nfts[tokenId];\n    }\n}\n",
  "sourcePath": "/Users/michaelguo/Desktop/6883/Project/contracts/NFTMarketplace.sol",
  "compiler": {
    "name": "solc",
    "version": "0.8.13+commit.abaa5c0e.Emscripten.clang"
  },
  "schemaVersion": "3.4.13",
  "updatedAt": "2023-04-21T23:22:51.654Z",
  "devdoc": {
    "kind": "dev",
    "methods": {
      "approve(address,uint256)": {
        "details": "See {IERC721-approve}."
      },
      "balanceOf(address)": {
        "details": "See {IERC721-balanceOf}."
      },
      "getApproved(uint256)": {
        "details": "See {IERC721-getApproved}."
      },
      "isApprovedForAll(address,address)": {
        "details": "See {IERC721-isApprovedForAll}."
      },
      "name()": {
        "details": "See {IERC721Metadata-name}."
      },
      "ownerOf(uint256)": {
        "details": "See {IERC721-ownerOf}."
      },
      "safeTransferFrom(address,address,uint256)": {
        "details": "See {IERC721-safeTransferFrom}."
      },
      "safeTransferFrom(address,address,uint256,bytes)": {
        "details": "See {IERC721-safeTransferFrom}."
      },
      "setApprovalForAll(address,bool)": {
        "details": "See {IERC721-setApprovalForAll}."
      },
      "supportsInterface(bytes4)": {
        "details": "See {IERC165-supportsInterface}."
      },
      "symbol()": {
        "details": "See {IERC721Metadata-symbol}."
      },
      "tokenURI(uint256)": {
        "details": "See {IERC721Metadata-tokenURI}."
      },
      "transferFrom(address,address,uint256)": {
        "details": "See {IERC721-transferFrom}."
      }
    },
    "version": 1
  },
  "userdoc": {
    "kind": "user",
    "methods": {},
    "version": 1
  }
}